:020000040800F2
:1000000000800120D10400081D0500081D0500081E
:100010001D0500081D0500081D0500080000000062
:100020000000000000000000000000001D050008A6
:100030001D050008000000001D0500081D05000842
:100040001D0500081D0500081D0500081D05000808
:100050001D0500081D0500081D0500081D050008F8
:100060001D0500081D0500081D0500081D050008E8
:100070001D0500081D0500081D0500081D050008D8
:100080001D0500081D0500081D05000800000000F2
:100090000000000000000000000000001D05000836
:1000A0001D0500081D0500081D0500081D050008A8
:1000B0001D0500081D0500081D0500081D05000898
:1000C0001D0500081D0500081D0500081D05000888
:1000D0001D0500081D0500081D05000800000000A2
:1000E0001D0500081D0500081D0500080000000092
:1000F0000000000000000000000000001D050008D6
:10010000000000001D0500081D0500081D05000871
:1001100000000000000000000000000000000000DF
:100120001D0500081D0500081D0500081D05000827
:100130001D05000800000000000000000000000095
:100140000000000000000000000000001D05000885
:100150001D0500081D0500081D0500081D050008F7
:100160001D0500081D05000800000000000000003B
:10017000000000000000000000000000000000007F
:10018000000000001D050008000000000000000045
:100190001D05000810B5054C237833B9044B13B185
:1001A0000448AFF300800123237010BD100200202B
:1001B00000000000B02C0008084B10B51BB1084827
:1001C0000849AFF300800848036803B910BD074B26
:1001D000002BFBD0BDE81040184700BF0000000016
:1001E000B02C0008140200200C02002000000000C7
:1001F000154B002B08BF134B9D46A3F5803A0021F9
:100200008B460F461348144A121A01F0EAFD0F4BB1
:10021000002B00D098470E4B002B00D098470020B1
:10022000002104000D000D48002802D00C48AFF357
:10023000008001F053FD2000290000F0CFFD01F007
:10024000B1FB00BF0000080000800120000000009A
:100250000000000010020020FC050020000000004B
:100260000000000008B501F0D5F9BDE8084000F035
:10027000CBBC70B50368DB680446984763685A686E
:1002800023681AB99B68BDE8704018475B68156819
:100290009847281A0028636809DC5A6891685960F1
:1002A00063681B68002BE9D050689847E6E721682F
:1002B0005A680B691068BDE87040184710B542686D
:1002C000164C92010346A150A0189A68426002465B
:1002D000D96842F8081F196951605969916000F1A5
:1002E0001002D96991600021C161C184C18593F96F
:1002F0001910013101D1082305E093F918300133B9
:100300000CBF04230C23536000F06BFA20B10448A7
:10031000BDE8104000F092BD10BD00BF30020020CB
:1003200070280008F0B5044685B008460F463F49DE
:10033000164600F009FC3E490546304600F004FC34
:100340000146284600F0E2FB411C054605D139482C
:100350003949C82200F0FEFA2EE0384B984213D0FB
:1003600003F5806398421BD0A3F55043984223D1F4
:10037000334B1A6C42F400321A641B6C03F40033E2
:100380000293029B012316E02D4B5A6C42F010029F
:100390005A645B6C03F010030193019B00230AE095
:1003A000274B5A6C42F020025A645B6C03F0200326
:1003B0000393039B0523636038461C4900F088FBC8
:1003C00030461B4900F084FB7A1C03D038460121DB
:1003D00000F03CF9731C03D03046012100F036F9DF
:1003E0004FF41653A3600023E36023616361277613
:1003F000667620462946FFF761FF6368114A9B0134
:10040000D258114B9A420FD1104B01221A60104B57
:1004100004F12005206861681A4603C20834AC4222
:100420001346F7D12068106005B0F0BD28280008F9
:10043000E027000888280008A128000800100140D3
:100440000038024030020020004400402C0200200E
:10045000300400204368034A9B01D3581868C0F356
:10046000401070473002002038B5446805462846E1
:10047000FFF7F0FF0028FAD0A401034B1B5958687E
:10048000C0F3080038BD00BF300200204368034AB3
:100490009B01D3581868C0F3C01070473002002089
:1004A00070B5456806460C463046FFF7EFFF00285A
:1004B000FAD0AD01024B5B59C4F308045C6070BD17
:1004C000300200200148FFF7D4BE00BF6C290008AD
:1004D000DFF830D0002103E00B4B5B584350043170
:1004E0000A480B4B42189A42F6D30A4A02E000230C
:1004F00042F8043B084B9A42F9D301F05FF9FFF749
:1005000077FE704700800120BC2C00089401002079
:100510001002002010020020FC050020FEE7000071
:100520007FB507284DD8DFE800F004101C28344CB4
:100530004C40274B27481A6B42F001021A631B6B91
:1005400003F001030093009B3FE0214B22481A6B0C
:1005500042F002021A631B6B03F002030193019B3A
:1005600033E01B4B1D481A6B42F004021A631B6BED
:1005700003F004030293029B27E0154B18481A6B03
:1005800042F008021A631B6B03F008030393039BFA
:100590001BE00F4B13481A6B42F010021A631B6BDF
:1005A00003F010030493049B0FE0094B0E481A6BF1
:1005B00042F080021A631B6B03F080030593059BD6
:1005C00003E00A4800F03AFC002007B05DF804FBA5
:1005D00000380240000002400004024000080240CF
:1005E000000C024000100240001C02407429000868
:1005F00030B5431C87B005460C4604D1104811495C
:10060000812200F0A7F9C5F30310FFF789FF05F079
:100610000F050123AB4004F00F0201930A4B53F87E
:1006200022300293C4F302130393C4F3C3140323CD
:1006300001A90493059401F0FBF807B030BD00BF99
:10064000FF2A000895290008142A0008431C70B5E9
:1006500006460C4604D10D480D49A62200F07AF951
:10066000C6F30310FFF75CFF06F00F05C1686B00CF
:1006700003229A4021EA0202032CC260C26828BF0A
:1006800000249C401443C46070BD00BFFF2A0008D2
:10069000952900082DE9F84301680B6923F44052BD
:1006A000C368044613430B61A268216900681143C3
:1006B0006269C3681143E26923F416430A4323F0D5
:1006C0000C031343C36021684B6923F44072A36990
:1006D00013434B61E3692668B3F5004F3E4B36D1B7
:1006E0009E4203D003F580639E4216D100F0AEFE19
:1006F0006768192568437F00B0FBF7F700F0A6FE96
:1007000062684FF064086843B7FBF8F752003F0196
:10071000B0FBF2F900F09AFE15E000F081FE676888
:10072000192568437F00B0FBF7F700F079FE626897
:100730004FF064086843B7FBF8F752003F01B0FB85
:10074000F2F900F06DFE45436068400034E09E42DF
:1007500002D0224B9E4216D100F078FE6768192520
:100760006843BF00B0FBF7F700F070FE62684FF01F
:1007700064086843B7FBF8F792003F01B0FBF2F959
:1007800000F064FE15E000F04BFE67681925684331
:10079000BF00B0FBF7F700F043FE62684FF064085B
:1007A0006843B7FBF8F792003F01B0FBF2F900F0A5
:1007B00037FE454360688000B5FBF0F0B0FBF8F011
:1007C00008FB109212013232B2FBF8F303F00F0370
:1007D0003B43B360BDE8F8830010014000140140C2
:1007E000704710B5044640B390F8393003F0FF026B
:1007F0001BB980F83820FFF7F3FF2268022384F842
:100800003930D36823F40053D3602046FFF742FF0A
:100810002268136923F4904313612268536923F01B
:100820002A0353612268D36843F40053D360002045
:100830000123E06384F8393010BD012010BD7047FA
:10084000224A036890420ED0B0F1804F0BD0A2F53F
:100850007C42904207D002F58062904203D002F5BC
:100860008062904214D14A6823F070031343174A00
:10087000904225D0B0F1804F22D0154A90421FD02F
:1008800002F5806290421BD002F58062904217D040
:10089000104A904214D002F58062904210D002F5C6
:1008A000806290420CD003608B68C3620B688362E5
:1008B000064B984204BF0B690363012343617047F1
:1008C000CA6823F440731343EDE700BF0000014002
:1008D000000400400040014010B50446A0B190F86B
:1008E000393003F0FF021BB980F83820FFF7A7FF6B
:1008F000022384F839302068211DFFF7A1FF01236E
:1009000084F83930002010BD012010BD10B501233E
:10091000046A8B4024EA03030362036A8A40134398
:10092000036210BD10B5044601220068FFF7EEFF18
:100930002368074A934202BF5A6C42F400425A6449
:100940002268136843F001031360002010BD00BF4C
:100950000000014030B505460C46134629462246A4
:100960000248BDE8304000F069BA00BF482A0008DC
:10097000431C10B5044604D1064807492722FFF757
:10098000E9FF20460021FFF733FE04F00F040120A9
:10099000A04010BDFF2A0008792A000870B504465F
:1009A0004B1C0E4621700DD0C1F30310FFF7B8FDAC
:1009B00005463046FFF7DCFF05F11003183560608F
:1009C000A360E56070BD90F90000FFF73FBE000036
:1009D00038B590F90030013305460C4604D107487C
:1009E00007494622FFF7B6FF012C95F900000CBF1E
:1009F00021460021BDE83840FFF7FABDFA2A000879
:100A0000792A000808B5114C94F90030013304D15B
:100A10000F4810493422FFF79DFFE36862681A60AF
:100A20000D4800F0DDF894F90030013304D1084896
:100A300008493422FFF78EFF6368E2681B041360E5
:100A40004FF07E5000F0CCF8DDE700BF5C040020E2
:100A5000FA2A0008122B0008CDCC4C3E10B5064CEB
:100A600000212046102201F0BCF920460521BDE8F6
:100A7000104000F0A6B800BF5C0400201FB572B69D
:100A80000521684600F09DF89DF90030013304D13E
:100A90000D480E493422FFF75DFF039B019A1A604F
:100AA000962000F0ABF89DF90030013304D10648E0
:100AB00006493422FFF74EFF019B039A1B04136083
:100AC000962000F09BF8DFE7FA2A0008122B0008B6
:100AD00010B50446013001D110BD0C3191F9003040
:100AE0005A1C0BD0A342F8D120468968FFF780FD3D
:100AF00020460021BDE81040FFF7A8BD0248BDE830
:100B0000104000F09BB900BF962B0008884208B542
:100B10000AD0431C07D0013106D0044800F08EF9FA
:100B20004FF0FF3008BD084608BD00BFA72B0008E6
:100B300091F900305A1C05D0834201D148687047B2
:100B40000C31F5E718467047421C10B5044607D033
:100B5000FFF7EEFF431C044602D1024800F06EF995
:100B6000204610BDB82B000838B590F9003001338D
:100B700004460D4604D1054805493422FFF7EAFE34
:100B8000E268636805B91B04136038BDFA2A0008DF
:100B9000122B000870B50E4604461546FFF7FEFE00
:100BA00001360DD020462946FFF7DEFF2046012101
:100BB000FFF70EFF20460021BDE87040FFF703BF9E
:100BC00070BD0022FFF7E6BF38B5044600F066FCB2
:100BD000054600F063FC401BA042FAD338BD00007C
:100BE00007EE100ADFED047A67EE277AFDEEE77A6A
:100BF00017EE900AFFF7E8BF002474494FF47A73A8
:100C00005843FFF7E1BF000008B50B4B1A6842F4E8
:100C100000721A601A6842F480621A601A6842F41C
:100C200080721A60032000F0E3FC0F2000F088FCC3
:100C300000F0B0FE002008BD003C0240024A1368EC
:100C400001331360704700BF6C040020014B18682B
:100C5000704700BF6C04002010B50C4CA268A4685B
:100C6000B4F1006F13460CD1131F094A53F8044F17
:100C700042F8044F074CA242F8D1044A4FF0005307
:100C80009360103043F8201010BD00BF00ED00E06D
:100C9000FCFFFF1F90010020044B1B6823B9044890
:100CA00002210322FFF73EBB704700BF2C02002049
:100CB0003004002002284FF0000309DDC21E07495E
:100CC00051F8220041F8223020B103685B681847D0
:100CD000184670474FF0FF30704700BF7004002087
:100CE000022870B50C4615460FDC0E4B1B680BB97D
:100CF000FFF7D2FF6619B44205D00B4814F8011B68
:100D0000FFF7CEFBF7E7284670BD0338074B53F8D3
:100D1000200020B10368BDE870401B6818474FF001
:100D2000FF3070BD2C020020300400207004002031
:100D3000022810B50C460ADC0B4B1B680BB9FFF7F9
:100D4000ABFF0A48FFF790FB2070012010BD03386D
:100D5000074B53F8200020B10368BDE810409B68A2
:100D600018474FF0FF3010BD2C0200203004002047
:100D700070040020022807DD0338064B53F82000DA
:100D800020B10368DB681847012070474FF0FF303F
:100D9000704700BF70040020022807DD0338064BAF
:100DA00053F8200020B103681B69184700207047E2
:100DB0004FF0FF30704700BF70040020022808B5D4
:100DC00004D84FF400534B60002008BD00F0E4FD50
:100DD000092303604FF0FF3008BD704708B5FFF7E7
:100DE00041FAFFF7FAFFBDE80840FFF70BBE00002D
:100DF000074A13681844EFF30881884229BF054B5E
:100E000010600C224FF0FF302CBF1A60184670475C
:100E100094010020F805002008B5074C236805461A
:100E2000986800F081FE2368D86800F07DFE0DB15F
:100E3000FFF724FEFEE700BFFC0100200FB407B55A
:100E4000054B04AA1B6852F8041BD868019201F0F4
:100E50009BF9012000F0A6FDFC010020F7B5036816
:100E60000446D80703D42368990746D493E0A64BD9
:100E70009A6802F00C02042A07D09A6802F00C0269
:100E8000082A0BD15B685A0208D59F4B1B689B034D
:100E9000E9D56368002BE6D101205CE19B4D00237E
:100EA0002B70FFF7D3FE0646974B1B689F0306D5B2
:100EB000FFF7CCFE801BC828F6D903204BE123792D
:100EC0002B70636863B1FFF7C1FE05468E4B1B684C
:100ED0009E03C8D4FFF7BAFE401BC828F6D9ECE73A
:100EE000FFF7B4FE0546884B1B689803BBD5FFF798
:100EF000ADFE401BC828F6D9DFE7834B9A6812F095
:100F00000C0F07D09A6802F00C02082A16D15B6811
:100F1000590213D47C4B1A68920702D5E268012A61
:100F2000BAD11968F82090FAA0F02269B0FA80F0DE
:100F300021F0F80182400A431A602CE0E268744B09
:100F4000DAB101221A60FFF781FE05466E48036898
:100F50009F0705D4FFF77AFE401B6428F6D9ACE75B
:100F60000268F82191FAA1F12369B1FA81F122F026
:100F7000F8028B40134303600DE01A60FFF766FE32
:100F80000546614B1B689E0705D5FFF75FFE401BBA
:100F90006428F6D991E723681D0703D4236858070E
:100FA0004BD51FE062695B4B72B101221A60FFF7FB
:100FB0004DFE0546544B5B6F9907EFD4FFF746FE95
:100FC000401B6428F6D978E71A60FFF73FFE054614
:100FD0004D4B5B6F9A07E1D5FFF738FE401B642845
:100FE000F6D96AE7484B1A6C42F080521A641B6CBF
:100FF000494A03F080530193019B136843F48073C3
:101000001360FFF723FE0546434B1B68DB0517D52E
:10101000424D00232B70FFF719FE06463A4B1B6F1B
:101020009F0713D4237A2B70A368FBB1FFF70EFE42
:101030000546354B1B6F9E0710D5A2692ABB61E0A0
:10104000FFF704FE401B6428DED936E7FFF7FEFDFC
:1010500041F28833801B9842E0D92EE7FFF7F6FD76
:1010600041F28833401B9842E3D926E7FFF7EEFDB3
:101070000546254B1B6F9807DFD5FFF7E7FD41F2CB
:101080008833401B9842F4D917E71F4B9B6803F045
:101090000C03082B3FF400AF214D0023022A2B60E4
:1010A0004CD1FFF7D3FD064617480368990139D4A0
:1010B00047F6C07797FAA7F74FF44036B7FA87F7A5
:1010C00096FAA6F64FF07061B6FA86F691FAA1F19B
:1010D000E369226AB1FA81F11A43636ABB401A4399
:1010E000A36A5B08013BB3401343E26A8A4013439F
:1010F000436001232B60FFF7A9FD0446024B1B68E8
:101100009A0115D5002026E000380240023802403E
:1011100000004742800E4742007000407038024095
:1011200060004742FFF792FD801B6428BCD9C4E6EB
:10113000FFF78CFD001B6428E0D9BEE6FFF786FDB3
:101140000446064B1B689B01DCD5FFF77FFD001BA7
:101150006428F6D9B1E603B0F0BD00BF0038024004
:1011600070B5804B1A6802F00F02914204460D469A
:1011700078D9CAB21A701B6803F00F038B4201D0F2
:10118000012070BD03689E0741BF77498B6823F03B
:10119000F002836844BF13438B600368DD070BD400
:1011A0002368580740F1CD806F498B6823F4E052E3
:1011B000E36813438B60C4E043686B4A012B03D19F
:1011C000126812F4003F08E0991E0129126802D843
:1011D00012F0007F01E012F0020FD1D062498A685C
:1011E00022F0030213438B60FFF730FD6368012B8D
:1011F00005460ED15C4B9B6803F00C03042BCFD04B
:10120000FFF724FD41F28833401B9842F2D90320B6
:1012100070BD022B0DD1544B9B6803F00C03082BBF
:10122000BED0FFF713FD41F28833401B9842F2D93C
:10123000EDE7032B10D14C4B9B68FFF707FD41F204
:101240008833401B9842F6D9E1E7FFF7FFFC41F2F3
:101250008833401B9842DAD8434B9B6813F00C0F3D
:10126000F3D19DE70368990741BF3F498B6823F09D
:10127000F002836844BF13438B600368DA0709D424
:10128000384BEAB21A701B6803F00F03AB427FF4CD
:1012900077AF85E74368344A012B03D1126812F413
:1012A000003F08E0991E0129126802D812F0007F61
:1012B00001E012F0020F3FF463AF2B498A6822F07D
:1012C000030213438B60FFF7C1FC6368012B0646E2
:1012D0000DD1254B9B6803F00C03042BD0D0FFF7F6
:1012E000B5FC41F28833801B9842F2D98FE7022B7C
:1012F0000DD11D4B9B6803F00C03082BC0D0FFF7EA
:10130000A5FC41F28833801B9842F2D97FE7032B7A
:1013100011D1154B9B68FFF799FC41F28833801B74
:101320009842F6D973E7FFF791FC41F28833801BAE
:1013300098423FF66CAF0C4B9B6813F00C0FF2D148
:101340009EE723681B0741BF074A2169936823F47E
:10135000604344BF43EAC10393600F2000F0F0F8FC
:10136000002070BD003C02400038024010B51C4C0B
:10137000A36803F00C03042B2ED0082B2ED1626837
:1013800002F03F03626847F6C07112F4800F626892
:1013900091FAA1F147F6C07000EA020008BF114AB5
:1013A000B1FA81F120FA01F00EBFB2FBF3F20E495F
:1013B000B1FBF3F202FB00F3094A50684FF44032EC
:1013C00092FAA2F200F44030B2FA82F2D040013038
:1013D0004000B3FBF0F010BD034810BD014810BD44
:1013E000003802400024F40000127A0008B5FFF72C
:1013F000BDFF084BF0229B6892FAA2F203F0F003C3
:10140000B2FA82F2D340044AD35CD840034B18604E
:1014100008BD00BF00380240F62B000898010020EC
:1014200008B5FFF7E3FF074B4FF4E0529B6892FAD1
:10143000A2F203F4E053B2FA82F2D340024AD35C40
:10144000D84008BD00380240F62B000808B5FFF769
:10145000CDFF074B4FF460429B6892FAA2F203F46F
:101460006043B2FA82F2D340024AD35CD84008BD4E
:1014700000380240F62B0008054B186830B90122ED
:101480001A60044B044A1A6000F05AB8704700BF53
:10149000AC05002070050020000C004008B5044B8E
:1014A0001B680BB9FFF7E8FF024B586A08BD00BF85
:1014B000AC050020000C0040034B1B685863DA6841
:1014C00042F00202DA60704770050020034B1A6890
:1014D000D36823F00203D360704700BF700500207B
:1014E000024B1B686FF002021A6170477005002002
:1014F00038B5114B1A68D16811F0020F1C4604D0A0
:101500006FF002031361FEF7DDFF2368DA6852070C
:1015100011D56FF00402094D1A615C6A2B68E31A59
:10152000B3F57A7F07D3FFF789FB034B2C601B6869
:1015300004F57A729A6338BDB4050020B005002026
:1015400037B5234B234C1A6C42F008021A641A6C0C
:1015500002F008020192019A1A6A42F008021A6225
:101560001A6A22F008021A6200F054F81A4B23603B
:101570004FF0FF33E360194B194A1B68B3FBF2F3DA
:101580000025013B204663602561A5606561FFF78A
:10159000A3F932201349FFF75FFB134B4FF480226E
:1015A0005A6029462046FFF7BDF920460421FFF77F
:1015B000B9F923680D495A6A0A6002F57A729A638A
:1015C000DA68284642F00402DA6003B030BD00BF9A
:1015D00000380240B4050020000C004098010020B3
:1015E00040420F00F114000800E100E0B0050020C7
:1015F000074AD36823F4E0631B041B0C43F0BF636A
:1016000043F4003300F0070043EA0023D36070473F
:1016100000ED00E0174A1849936803F00C03042B0F
:1016200003D0082B03D0154B18E0154B16E050687B
:10163000536810F4800F03F03F03506814BF104A42
:101640000E4AB2FBF3F30B4A5268C2F30142C0F3F5
:101650008810013243435200B3FBF2F30B60054B99
:10166000084A9B68C3F30313D25C0B68D3400B603A
:10167000704700BF00380240980100200024F400A9
:1016800000127A00062C000810B5204B1A6C42F0AC
:1016900080521A641B6C1E4A94B003F0805301936D
:1016A000019B136823F4404343F400431360136821
:1016B00003F440430293029B0123089300B10523E6
:1016C00009934FF480030F93082310934FF4A873EA
:1016D000119304230224129308A807230E94139352
:1016E000FFF7BCFB78B90F23039305904FF48053A9
:1016F0000790214603A804940693FFF731FDB0FA42
:1017000080F0400900E0002014B010BD0038024015
:101710000070004030B5204B1A6C42F080521A64C1
:101720001B6C1E4A95B003F080530193019B136814
:1017300023F4404343F400431360136803F440432D
:101740000293029B0323089301230B9310230C9312
:1017500010934FF4A87311930423002402251293CD
:1017600008A8072309940E950F941393FFF776FBAF
:1017700078B90F23039305904FF4805307902946BF
:1017800003A804950693FFF7EBFCB0FA80F040093C
:1017900000E0204615B030BD003802400070004027
:1017A00008B50120FFF770FF30B9FFF76DFF18B9DA
:1017B000FFF7B0FF00B9FEE708BD000010B5174AFB
:1017C000174CD2F8883043F47003C2F8883023688D
:1017D000002143F001032360A160236823F0847398
:1017E00023F4803323600F4B6360236823F480234A
:1017F00023604FF00063E16093600B4B0B4A1A606B
:10180000FFF702FAFFF7CCFF236A43F008032362D5
:10181000236A23F00803236210BD00BF00ED00E03F
:101820000038024010300024980100200024F40009
:10183000F7B5002301240A689C402240A24240F0F0
:101840009C804C6824F01004022C0ED1DD0800EBC3
:10185000850503F007062F6AB6000F24B44027EA77
:1018600004070C69B4403C432C625E000324056805
:10187000B440E44304EA05074D6805F00305B540AC
:101880003D4305604D6825F01005013D012D0FD841
:10189000856804EA0507CD68B5403D438560456825
:1018A00025EA02074D68C5F300159D403D4345609C
:1018B000C5682C408D68B5402543C5604C68E40080
:1018C0005BD5314C656C45F480456564646C23F0F0
:1018D000030505F1804504F4804405F59C35019429
:1018E00003F0030E019CAF684FEA8E0E0F2404FA3A
:1018F0000EF427EA0406254CA04212D004F58064B9
:10190000A04210D004F58064A0420ED004F580649B
:10191000A0420CD004F58064A0420CBF042405242E
:1019200006E0002404E0012402E0022400E0032495
:1019300004FA0EF43443AC60154E4F683468D54356
:10194000FF034CBF14432C40346074684E68B603E8
:101950000F4E4CBF14432C4074604F68B468FF02B4
:101960004CBF14432C40B460F4684E68B60254BFB8
:1019700005EA04022243064CE2600133102B7FF497
:1019800059AF03B0F0BD00BF003802400000024074
:10199000003C014070470000014B1868704700BFD1
:1019A000FC01002008B5074B044613B10021AFF33A
:1019B0000080054B1868836A03B198472046FFF7FB
:1019C0002BFA00BF00000000782C00088A892DE95E
:1019D000F041054610070C4657D44B68002B02DC3B
:1019E0000B6C002B18DDE66AB6B102F480520023BE
:1019F00092B22F682B600AB1626D10E0216A28460E
:101A00000123B047411C024609D12B683BB11D2B75
:101A100001D0162B47D12F600020BDE8F081A389AB
:101A20005B0705D56368D21A636B0BB1236CD21ABE
:101A3000E66A216A00232846B047461CA38905D1DF
:101A40002A681AB11D2A01D0162A19D10022626013
:101A5000D9042269226004D5421C01D12B6803B944
:101A60006065616B2F600029D6D004F14403994270
:101A700002D0284600F0BEF900206063BDE8F08186
:101A800043F04003A381BDE8F0810F69002FC3D06C
:101A900093070E6808BF4B690F6018BF0023C7EBA0
:101AA00006088B6012E0A38943F04003A3814FF046
:101AB000FF30BDE8F0812846216AA66A3A464346CF
:101AC000B0470028EFDD0744C0EB0808B8F1000F6D
:101AD000F1DCA1E738B50B6905460C46DBB118B15E
:101AE00083690BB900F072F80C4B9C4201D16C6811
:101AF00008E00B4B9C4201D1AC6803E0094B9C42CF
:101B000008BFEC68B4F90C302BB128462146BDE87B
:101B10003840FFF75BBF002038BD00BF182C00081D
:101B2000382C0008582C0008014620B9044B054900
:101B3000186800F0B5B8044B1868FFF7CBBF00BFBA
:101B4000782C0008D51A0008FC010020014900F09B
:101B5000A7B800BFD51A0008002310B504460360DB
:101B60004360836081814366C28103614361836115
:101B700019465C30082200F034F9054B6362054BCE
:101B8000A362054BE362054B2462236310BD00BFD3
:101B9000F1240008132500084B2500086F250008D4
:101BA00070B568234D1E5D430E4605F1740100F0CB
:101BB00065F9044640B1002180E842000C30A06085
:101BC00005F1680200F00DF9204670BD836910B57B
:101BD000044633BB8364C3640365124B124A1B681B
:101BE0008262984204BF0123836100F01FF86060A5
:101BF000204600F01BF8A060204600F017F80421F2
:101C0000E06000226068FFF7A7FFA06809210122B9
:101C1000FFF7A2FFE06812210222FFF79DFF0123D8
:101C2000A36110BD782C00084D1B0008F8B51B4BB4
:101C30001E68B369074613B93046FFF7C7FF483639
:101C4000B4687368013B04D4B4F90C5075B16834BE
:101C5000F8E733682BB938460421FFF7A1FF30605D
:101C600008B13668ECE70C233B60F8BD4FF6FF7314
:101C7000E3810123A38165662560A5606560256118
:101C80006561A56104F15C002946082200F0A9F80D
:101C90006563A563A564E5642046F8BD782C00085B
:101CA0002DE9F8438046894600F14804002694B1A6
:101CB000A5686768013F0CD4AB89012B07D9B5F93A
:101CC0000E30013303D040462946C84706436835E5
:101CD000F0E72468EBE73046BDE8F88370B50E4BBB
:101CE0000E4CE41AA41000251E46A54204D056F856
:101CF000253098470135F8E700F066FD084C094BA0
:101D0000E41AA41000251E46A54204D056F825303A
:101D100098470135F8E770BD00020020000200205E
:101D20000802002000020020F0B58B899D0791B0C9
:101D300006460C4626D4B1F90E10002909DAA3890B
:101D400013F0800F4FF0000514BF40274FF4806759
:101D50000DE001AA00F0F2FC0028F0DB029D05F482
:101D60007045A5F500514D424D414FF48067304616
:101D7000394600F083F860B9A3899A051DD443F071
:101D80000203A38104F147032360236101236361FC
:101D900013E00B4BB362A389206043F08003A3815F
:101DA000206167614DB13046B4F90E1000F0D8FCE7
:101DB00018B1A38943F00103A38111B0F0BD00BFA6
:101DC0004D1B000810B5C9B202449042034606D02C
:101DD0001C788C4200F10100F7D1184610BD00209C
:101DE00010BD02440346934202D003F8011BFAE7F8
:101DF0007047000030B500293DD051F8042C0B1F6E
:101E00001D49002AB8BF9B180A680C4612B95A60CF
:101E10000B6030BD93420DD219685818904201BF33
:101E20005A5852181A6042685A60236030BD99426D
:101E300003D80A4651680029F9D1146815199D4242
:101E40000AD11B682344D0188842136013D1086854
:101E5000034413604B680DE002D90C23036030BDCE
:101E60001C681819884204BF08684968596004BF93
:101E700000191860536030BDF405002070B5CC1C0B
:101E800024F0030408340C2C38BF0C24002C064624
:101E900003DA0C233360002070BD8C42F9D3204A52
:101EA000136810461946A1B10A68121B0ED40B2AFA
:101EB00003D90A608B188C501FE08B420DBF5A6803
:101EC0004A685A60026018BF0B4616E00B46496824
:101ED000E9E7144D2B681BB9304600F0F9FA286089
:101EE0003046214600F0F4FA421C0346D1D0C51C0E
:101EF00025F0030585420AD11C6003F10B001A1D71
:101F000020F00700821A0AD05142995070BD304625
:101F1000E91A00F0DDFA0130BBD02B46ECE770BDCA
:101F2000F4050020F00500209368013B002B10B55C
:101F3000936009DA9469A34202DBCBB20A2B03D186
:101F4000BDE8104000F018BB1368581C10601970F1
:101F5000C8B210BDF8B506460F461446D518AC42B7
:101F600008D0304614F8011B3A46FFF7DDFF431C4A
:101F7000F5D100E00020F8BD2DE9F0439DB00D46FD
:101F800090460393064618B183690BB9FFF71EFE0E
:101F9000754B9D4201D1756808E0744B9D4201D19B
:101FA000B56803E0724B9D4208BFF568AB891C071A
:101FB0000AD52B6943B10023099320238DF82930DA
:101FC00030238DF82A3041E03046294600F03AFBB4
:101FD0000028F0D04FF0FF30C2E0039A111D1268C4
:101FE0000391002ABBBF524243F0020307920792BB
:101FF000B8BF0493013423782E2B7BD0DFF8808187
:10200000217840460322FFF7DDFE38B1049AC8EB81
:102010000000402383401343049301342178554842
:102020008DF82810062204F10108FFF7CBFE0028E6
:1020300000F08580504B002B78D1039B073323F0B1
:10204000070308330393099B3B44099343461C460B
:1020500013F8012B1AB9B4EB08090ED002E0252AB7
:10206000F5D1F8E73046294642464B46FFF772FF66
:10207000013070D0099B4B4409932378002B6AD020
:1020800000234FF0FF3204930793059206938DF8D7
:1020900053301A9304F101084446DFF8E8902178A0
:1020A00048460522FFF78EFE08F10108049B30B177
:1020B000C9EB00000122824013430493ECE7D806E9
:1020C00044BF20228DF85320190744BF2B228DF8DE
:1020D000532022782A2A80D0079923461C460133B0
:1020E0002278303A092A03D80A2000FB0121F5E7BB
:1020F000079180E763782A2B0AD1039B1A1D1B687E
:102100000392002BB8BF4FF0FF330234059375E7FD
:10211000611C00220C4601312378303B092B03D887
:102120000A2000FB0232F5E7059267E703AB009354
:10213000304604A92A46114BAFF3008007E003ABF9
:102140000093304604A92A460C4B00F0A1F8421C2B
:1021500007467FF478AFAB895B063FF53BAF099844
:102160001DB0BDE8F08300BF182C0008382C000813
:10217000582C0008862C000800000000551F00089D
:10218000822C00087C2C000830B51346044A054612
:102190000C46106829462246BDE83040FFF7ECBEE9
:1021A000FC0100202DE9F84391461F468A680B691F
:1021B000DDF820809342B8BF1346C9F8003091F88B
:1021C000432006460C4612B10133C9F8003023689B
:1021D000990642BFD9F800300233C9F800302568AB
:1021E00015F006051CD094F843302268003318BF60
:1021F000012392061FD5E1185A1C302081F84300B4
:10220000224494F8451082F84310023313E030461C
:10221000394604F119020123C047013007D00135C6
:10222000E368D9F800209B1A9D42F0DBDBE74FF012
:10223000FF30BDE8F8833046394604F14302C04719
:102240000130F4D02268D9F80050E36802F00602A9
:10225000042A08BF5D1B2269A3680CBF25EAE57547
:1022600000259342C4BF9B1AED184FF00009A94501
:102270000ADA3046394604F11A020123C047013018
:10228000D5D009F10109F2E70020BDE8F88300008C
:102290002DE9FF410C461746227E6E2A98460646D7
:1022A0000A9B01F1430100F0AF8012D8632A23D0CA
:1022B0000AD8002A00F0BC80582A40F0CB8084F86D
:1022C0004520DFF804E257E0642A1ED0692A1CD0BA
:1022D000C0E0732A00F0B08009D86F2A2ED0702A8F
:1022E00040F0B880226842F0200222603FE0752A68
:1022F00024D0782A3BD0ADE01A68111D196013680C
:1023000084F8423004F14205A8E020681A6810F011
:10231000800F02D0101D186008E010F0400F02F18D
:102320000400186002D0B2F9003000E01368002BFE
:102330003EDA2D225B4284F8432039E020681A6897
:1023400010F0800F02D0101D186007E010F0400F51
:1023500002F10400186001D0138800E01368227EA7
:10236000DFF864E16F2A0CBF08220A221CE0782201
:10237000DFF858E184F845202268186812F0800FD1
:1023800000F104051D6003D1550601D5038800E066
:102390000368D00744BF42F0200222601BB92268C4
:1023A00022F0200222601022002084F8430002E084
:1023B000DFF814E10A226568A560002DA2BF20683D
:1023C00020F00400206003B965B10D46B3FBF2F0C4
:1023D00002FB10331EF8033005F8013D03460028C8
:1023E000F4D100E00D46082A0BD12368DA0708D59E
:1023F000236962689A42DEBF302305F8013C05F18B
:10240000FF35491B21612EE025681A68606915F0C7
:10241000800F03D0151D1D60136808E015F0400FF4
:1024200002F104051D60136801D0188000E01860F7
:10243000002323610D4616E01A68111D1960156806
:10244000626828460021FFF7BDFC08B1401B6060B0
:10245000636804E004F1420584F84220012323610B
:10246000002384F84330CDF800803046214603AA8B
:102470003B46FFF797FE013002D14FF0FF301FE0DF
:10248000304639462A462369C0470130F5D02368D3
:102490009B0705D4E068039B9842B8BF18460FE03D
:1024A0000025E368039A9B1A9D42F3DA30463946C9
:1024B00004F119020123C0470130DED00135F0E7F5
:1024C00004B0BDE8F08100BF8D2C00089E2C0008F0
:1024D00038B5064C0023054608462360FEF788FC05
:1024E000431C02D1236803B12B6038BDF8050020DE
:1024F00010B50C46B1F90E1000F054F90028ABBF2E
:10250000636DA3891B1823F48053ACBF6365A3815B
:1025100010BD2DE9F0411D468B89DB0507460C46B1
:10252000164605D5B1F90E100022022300F028F955
:10253000A389B4F90E1023F48053A38138463246A0
:102540002B46BDE8F04100F06BB810B50C46B1F970
:102550000E1000F015F9431CA38915BF606523F424
:10256000805343F48053A38118BFA38110BDB1F9F8
:102570000E1000F0D3B8000070B50D4614460646A4
:1025800018B183690BB9FFF721FB224B9C4201D1A3
:10259000746808E0204B9C4201D1B46803E01F4BF3
:1025A0009C4208BFF468A369A360A3891A0709D5F0
:1025B00023693BB123682069181A63699842EDB218
:1025C0000FDB08E03046214600F03CF80028F1D04F
:1025D0004FF0FF3070BD30462146FFF77BFA0028F0
:1025E000F6D1A368013BA36023685A1C22601D70CA
:1025F00063690130984204D0A389DB0707D50A2D0F
:1026000005D130462146FFF765FA0028E0D128467B
:1026100070BD00BF182C0008382C0008582C00088A
:1026200038B5074C054600202060084611461A467A
:10263000FEF756FB431C02D1236803B12B6038BD63
:10264000F8050020314B70B51D6806460C4625B1D3
:10265000AB6913B92846FFF7B9FA2D4B9C4201D15B
:102660006C6808E02B4B9C4201D1AC6803E02A4B1C
:102670009C4208BFEC68A3899AB211071DD4D50605
:1026800002D40922326038E0500712D5616B41B1A3
:1026900004F14403994202D03046FFF7ABFB00231C
:1026A0006363A38923F02403A38100236360236968
:1026B0002360A38943F00803A38123694BB9A3894D
:1026C00003F42073B3F5007F03D030462146FFF7B3
:1026D0002BFBA38913F0010205D00022A2606269DE
:1026E0005242A26103E0990758BF6269A260226961
:1026F0004AB903F0800080B230B143F04003A381B7
:102700004FF0FF3070BD002070BD00BFFC01002005
:10271000182C0008382C0008582C000838B5064C36
:102720000023054608462360FEF7C4FA431C02D185
:10273000236803B12B6038BDF805002038B5074C7D
:1027400000230546084611462360FEF737FB431C6D
:1027500002D1236803B12B6038BD00BFF80500200B
:1027600038B5064C0023054608462360FEF702FBF9
:10277000431C02D1236803B12B6038BDF80500204B
:1027800038B5074C054600202060084611461A4619
:10279000FEF702FB431C02D1236803B12B6038BD56
:1027A000F805002038B5074C054600202060084693
:1027B00011461A46FEF7BCFA431C02D1236803B146
:1027C0002B6038BDF8050020F8B500BFF8BC08BC88
:1027D0009E467047F8B500BFF8BC08BC9E467047DF
:1027E0000300000000440040930300000A000000C2
:1027F00000100140930300000C0000000014014091
:1028000013040000170000000010014093030000B3
:10281000270000000014014013040000FF00000026
:10282000FFFFFFFF00000000020000000044004026
:102830009303000009000000001001409303000012
:102840000B000000001401401304000016000000FB
:102850000010014093030000260000000014014016
:1028600013040000FF000000FFFFFFFF0000000056
:1028700043616E6E6F7420696E697469616C697A08
:102880006520554152540A00696E7374616E636528
:1028900020213D2028554152544E616D65294E43FB
:1028A00000453A5C776F726B73706163655C636F50
:1028B0006F636F785C6D626564436F6F636F7854AC
:1028C000656D706C6174655C4E75636C656F5F629D
:1028D0006C696E6B5F6C65645F636F6F636F785F6D
:1028E00073746D33326634303172655C6D62656469
:1028F0005C746172676574735C68616C5C544152AE
:102900004745545F53544D5C5441524745545F53BF
:10291000544D333246345C73657269616C5F61702B
:10292000692E6300756172745F72747320213D209B
:1029300028554152544E616D65294E4300756172B0
:10294000745F63747320213D2028554152544E61B9
:102950006D65294E43000000791400089D1400089D
:10296000CD140008E1140008B91400085829000823
:102970005404002050696E6D6170206572726F7230
:102980003A2077726F6E6720706F7274206E756D6B
:102990006265722E00453A5C776F726B737061638B
:1029A000655C636F6F636F785C6D626564436F6FC6
:1029B000636F7854656D706C6174655C4E75636CA3
:1029C000656F5F626C696E6B5F6C65645F636F6F90
:1029D000636F785F73746D33326634303172655C67
:1029E0006D6265645C746172676574735C68616C68
:1029F0005C5441524745545F53544D5C54415247D7
:102A000045545F53544D333246345C70696E6D618A
:102A1000702E6300000000000100000011000000A3
:102A2000020000001200000003000000000011106E
:102A300000002110000031100000121000002210D0
:102A400000003210000000106D6265642061737335
:102A50006572746174696F6E206661696C65643A51
:102A60002025732C2066696C653A2025732C206C18
:102A7000696E65202564200A00453A5C776F726BA9
:102A800073706163655C636F6F636F785C6D6265C3
:102A900064436F6F636F7854656D706C6174655CCF
:102AA0004E75636C656F5F626C696E6B5F6C6564BD
:102AB0005F636F6F636F785F73746D33326634304A
:102AC0003172655C6D6265645C74617267657473B4
:102AD0005C68616C5C5441524745545F53544D5C93
:102AE0005441524745545F53544D333246345C672A
:102AF00070696F5F6170692E63006F626A2D3E704E
:102B0000696E20213D202850696E4E616D65294E09
:102B10004300453A5C776F726B73706163655C6309
:102B20006F6F636F785C6D626564436F6F636F781E
:102B300054656D706C6174655C4E75636C656F5F38
:102B4000626C696E6B5F6C65645F636F6F636F78F7
:102B50005F73746D33326634303172655C6D6265FB
:102B6000645C746172676574735C68616C5C544129
:102B7000524745545F53544D5C5441524745545F4E
:102B800053544D333246342F6770696F5F6F626AFA
:102B90006563742E6800636F756C64206E6F7420BB
:102BA00070696E6F75740070696E6D6170206D690B
:102BB000732D6D617463680070696E6D6170206E55
:102BC0006F7420666F756E6420666F722070657218
:102BD0006970686572616C0070696E6D6170206EFD
:102BE0006F7420666F756E6420666F722066756EF6
:102BF0006374696F6E0000000000010203040102AB
:102C0000030406070809000000000000000001029C
:102C1000030406070809000000000000000000008F
:102C200000000000000000000000000000000000A4
:102C30000000000000000000000000000000000094
:102C40000000000000000000000000000000000084
:102C50000000000000000000000000000000000074
:102C60000000000000000000000000000000000064
:102C700000000000000000009C010020232D302BEC
:102C80002000686C4C00656667454647003031326D
:102C900033343536373839414243444546003031C4
:102CA0003233343536373839616263646566000023
:042CB0000000000020
:082CB4003CD5FF7F0100000088
:102CBC00FC05002000BD010500000000182C0008D8
:102CCC00382C0008582C0008000000000000000000
:102CDC0000000000000000009F2800080000000019
:102CEC0000000000000000000000000000000000D8
:102CFC0000000000000000000000000000000000C8
:102D0C0000000000000000000000000000000000B7
:102D1C0000000000000000009C010020B901000828
:0C2D2C005D0A000895010008000000008E
:04000005080004D11A
:00000001FF
