:020000040800F2
:100000000010002029180008791800087918000845
:1000100000000000000000000000000000000000E0
:100020000000000000000000000000007918000837
:10003000000000000000000079180008791800088E
:10004000791800087918000879180008791800084C
:10005000791800087918000879180008791800083C
:1000600000000000791800087918000879180008C5
:10007000791800087918000879180008791800081C
:10008000791800080000000000000000791800083E
:100090000000000079180008791800087918000895
:1000A000000000007918000800000000791800081E
:1000B0000000000000000000000000000000000040
:1000C00010B5064C2378002B07D1054B002B02D02E
:1000D000044800E000BF0123237010BD2C01002064
:1000E00000000000D02F000808B5084B002B03D0FB
:1000F0000748084900E000BF07480368002B00D10B
:1001000008BD064B002BFBD09847F9E70000000024
:10011000D02F00083001002028010020000000003E
:10012000164B002B00D1144B9D46402292029A1A86
:10013000924600218B460F461348144A121A01F0CA
:10014000F5FF0F4B002B00D098470E4B002B00D033
:1001500098470020002104000D000D48002802D01F
:100160000C4800E000BF01F04FFF2000290001F023
:1001700083F801F095FDC046000008000010002043
:1001800000000000000000002C010020840300207B
:10019000000000000000000008B501F061F900F067
:1001A0009FFC08BD38B50368041CDB68984763688A
:1001B0005A682368002A02D19B68984715E05B685B
:1001C0001568984763682D1A002D09DC5A689168F4
:1001D000596063681B68002BE9D050689847E6E7D0
:1001E0005A68216810680B69984738BD08B5124BEA
:1001F00002681A6082685A60C2689A600269DA60AE
:1002000042691A6100229A6119228256013201D193
:10021000082206E018228256013201D1042200E0B1
:100220000C225A6110225A628022181C52019A63D1
:1002300000F0ECFD08BDC0464C010020F0B5041CE8
:1002400085B0081C0E1C2B49151C00F0E5FE2A4F3A
:100250000090391C281C00F0DFFE011C009800F003
:10026000BBFE244B206000930197431C04D123481C
:100270002349642200F052FC224F2368BB420BD179
:100280008023214ADB0191691943916192691340EE
:100290000393039B00236360301C009900F080FEF1
:1002A000281C019900F07CFE731C03D0301C012136
:1002B00000F0DCF86B1C03D0281C012100F0D6F8FC
:1002C00096239B01A36000232676E360236163618C
:1002D0006576201CFFF78AFF2368BB4207D1012205
:1002E0000A4B0B481A60211C1B3201F016FF05B0A7
:1002F000F0BDC046902B0008602B0008CC2B0008F6
:10030000E62B0008003801400010024048010020A0
:10031000BC0100200368034AD86913608006C00F3F
:100320007047C0464C01002038B5041C0568201CED
:10033000FFF7F0FF0028FAD0A88CC0B238BD00004B
:100340000368034AD86913600006C00F7047C046AF
:100350004C01002070B5051C0C1C0668281CFFF71A
:10036000EFFF0028FAD0E4B2348570BD08B502482A
:10037000FFF718FF08BDC046682C00081FB5052808
:1003800035D801F07BFA03101C34342880239020E8
:100390001A4A9B025169C0051943516152691340C1
:1003A0000393039B27E08023144ADB02516914481E
:1003B00019435161526913400093009B1BE0802355
:1003C0000E4A1B0351690F4819435161526913408A
:1003D0000193019B0FE08023084ADB0351690A481F
:1003E00019435161526913400293029B03E007488D
:1003F00000F070FF002005B000BDC04600100240B4
:10040000000400480008004800140048702C000850
:1004100070B5061C88B00D1C431C04D1104811494E
:100420005D2200F07BFB0F2430092040FFF7A6FF80
:1004300001232640B34003932B1C0B4A23409B000F
:100440009B5803A9019304936B065B0F0593032349
:10045000ED112C400693079401F036F908B070BDF9
:10046000062E0008912C0008FC2C000870B5061C14
:100470000D1C431C04D10F480F497F2200F04EFB96
:100480000F20341C360904403040FFF777FF022369
:100490000021AB4249412B1C49420B40032164001F
:1004A000A140A340C2688A43191CC260C2681143BC
:1004B000C16070BD062E0008912C0008F0B50368DD
:1004C00085B0041CDB0703D423689B075FD4A3E03B
:1004D0000C23BD4D6A681A40042A06D06A6813408E
:1004E000082B0AD16B68DB0307D52B689B03EBD580
:1004F0006368002BE8D10120BDE12B68B34FB44EF7
:100500003B402B602B6833402B6000F001FB0190D7
:100510002A68AD4B920307D500F0FAFA019BC01A86
:10052000C828F5D90320A6E16268012A08D0002A6C
:100530000CD0052A0AD180211A68C9020A431A6020
:1005400080211A6849020A431A6005E01A681740B8
:100550001F601A6816401E606368002B0BD000F005
:10056000D7FA061C2B689B03AED400F0D1FA801B8F
:10057000C828F7D9D6E700F0CBFA061C2B689B03F6
:10058000A2D500F0C5FA801BC828F7D9CAE70C230A
:100590008D4D6A681A4206D06A681340082B10D144
:1005A0006B68DB030DD42B689B0702D5E368012B36
:1005B000A1D1F8212B6822698B43D20013432B6011
:1005C0002AE0E3680122002B17D02B6813432B602D
:1005D00000F09EFA061C2B687B499B0705D400F0AF
:1005E00097FA801B6428F6D99CE7F8200B682269EB
:1005F0008343D20013430B600EE02B6893432B60C0
:1006000000F086FA061C2B689B0705D500F080FADF
:10061000801B6428F7D985E723681B0703D4236868
:100620005B0738D53BE0236A0122674D002B0ED0D3
:100630006B6A13436B6200F06BFA061C6B6A9B07D4
:10064000EDD400F065FA801B6428F7D96AE76B6A7D
:1006500093436B6200F05CFA061C6B6A9B07DED565
:1006600000F056FA801B6428F7D95BE70121002AC5
:100670004DD0052A4BD104201A6A02431A621A6A25
:1006800011431962A368002B50D000F041FA061CF8
:100690002B6A9B0743D52368DB0654D49EE0802356
:1006A000494D5B05EA694B4E1A43EA61EA6913401A
:1006B00080220393039B336852001343336000F09E
:1006C00027FA071C3368DB0505D400F021FAC01BAC
:1006D0006428F7D926E701222B6A93432B622B6A01
:1006E000033293432B6200F013FA061C2A6A364B3E
:1006F000920706D500F00CFA374B801B9842F5D9CB
:1007000010E7A268012AB1D1196A0A4305E01A6A02
:100710008A4304211A621A6A8A431A62B2E700F015
:10072000F7F92D4B801B9842B2D9FBE600F0F0F9A7
:10073000061C2B6A9B07AED500F0EAF9264B801BFE
:100740009842F6D9EEE662691F4D0423012A1AD1B8
:10075000696B0B436B636B6B1A436A6300F0D8F9E8
:10076000061C6B6B18499B0705D400F0D1F9801B60
:100770006428F6D9D6E6F8204B6BA2698343D200F1
:1007800013434B632AE005320AD1F8216A6B9A437E
:100790006A636B6BA2698B43D20013436B631DE0EA
:1007A0006A6B134301226B636B6B93436B6300F0C3
:1007B000AFF9061C6B6B9B0710D500F0A9F9801BE5
:1007C0006428F7D9AEE6C04600100240FFFFFEFFE6
:1007D000FFFFFBFF0070004088130000626A002AE0
:1007E00001D1002047E00C23244D012069680B4013
:1007F000082B40D0224B022A2ED12A6813402B60AE
:1008000000F086F9061C2A681C4B920105D500F001
:100810007FF9801B6428F6D984E60F21DA6A8A43BF
:10082000216B0A43DA62E16AA06A5A6808431549F3
:100830000A40802102435A601A6849040A431A6038
:1008400000F066F9041C2B689B01CAD400F060F923
:10085000001B6428F7D965E62A6813402B6000F076
:1008600057F9041C2B689B01BBD500F051F9001B04
:100870006428F7D956E605B0F0BDC0460010024026
:10088000FFFFFFFEFFFFC2FF0123F7B5644A0E1C06
:100890001168041C1940171C8E4262D911689943D3
:1008A0003143116012681340B34201D00120B6E019
:1008B00003689B0706D5F0215A4A53688B43816829
:1008C0000B4353602368DB070BD423685B0700D41A
:1008D000A1E05449544B4A681340E26813434B600B
:1008E00099E0504D63682A68012B02D1920307D426
:1008F000DCE7022B02D1920102D4D7E79207D5D5CB
:1009000003216A688A4313436B6000F001F963684E
:10091000061C012B0CD10C236A681340042BD4D085
:1009200000F0F6F8414B801B9842F4D9032076E0A2
:10093000022B11D10C236A681340082BC5D000F09C
:10094000E7F83A4B801B9842F4D9EFE700F0E0F863
:10095000364B801B9842E9D80C236A681A42F5D1BD
:10096000B3E703689B0706D5F0212E4A53688B43F3
:1009700081680B4353602368DB0709D401223B687D
:10098000934333433B603B681A40B2428ED19CE7AD
:10099000244D63682A68012B02D1920308D485E7AD
:1009A000022B02D1920103D480E7920700D47DE7A5
:1009B00003216A688A4313436B6000F0A9F86368F7
:1009C0000190012B0CD10C236A681340042BD5D065
:1009D00000F09EF8019BC01A144B9842F3D9A5E78A
:1009E000022B13D10C236A681340082BC6D000F0E9
:1009F0008FF8019BC01A0D4B9842F3D996E700F08F
:100A000087F8019BC01A094B98428FD80C236A685B
:100A10001A42F4D1B2E7032000F0CEFC0020FEBD64
:100A20000020024000100240FFF8FFFF8813000082
:100A300030B5144C89B0211C1022684601F06DFBC2
:100A4000211C04AD10311022281C01F066FB0C2281
:100A50000D494B681A40082A10D168469A02120FB5
:100A6000845C0F22C96A0A40A95CDB0303D50748EE
:100A700000F00EFF00E00648604300E0034809B0C4
:100A800030BDC046302D00080010024000127A0030
:100A900000093D0008B5FFF7CBFF054B054A5B6831
:100AA0001B061B0FD35CD840034B186008BDC04623
:100AB00000100240502D0008B400002008B5FFF7D8
:100AC000E9FF044B044A5B685B055B0FD35CD840CD
:100AD00008BDC04600100240502D000870470000BD
:100AE000102108B5054A032013680B43136000F07A
:100AF00063FCFFF7F3FF002008BDC0460020024062
:100B0000024A1368013313607047C046E0010020B9
:100B1000014B18687047C046E001002038B5051C3D
:100B20000C1C131C291C0248221C00F0D3FB38BDEE
:100B3000602D00087047000038B5041CA2682169C8
:100B400000681143626903681143E2691143334A43
:100B500013400B4303602268314B51680B40E1683E
:100B60000B4353602068A269216A836811432D4AB0
:100B700013400B4383602C4B1A6B032313402B4A07
:100B8000D05C8023E2691B029A4224D1082817D83E
:100B900000F074FE051608160A1616160E00FFF76A
:100BA0008DFF03E0224805E0FFF742FF400001E02F
:100BB00080204002616800F06BFE83B2002001E0FB
:100BC000012000230F221D1C1340954321685B1058
:100BD0002B43CB6021E008281ED800F04FFE051DF6
:100BE000091D0C1D1D1D14002568FFF767FF05E09A
:100BF0002568104802E02568FFF71AFF616800F0D9
:100C000047FE80B205E0802061680002256800F0A0
:100C10003FFEE860002000E0012038BDF369FFFFDF
:100C2000FFCFFFFFFFF4FFFF00100240912D0008EF
:100C30000024F40000127A00436ADB0706D502683C
:100C40002C4B51680B40816A0B435360436A9B07EE
:100C500006D50268284B51680B40C16A0B435360AC
:100C6000436A5B0706D50268244B51680B40016B51
:100C70000B435360436A1B0706D50268204B51683B
:100C80000B40416B0B435360436ADB0606D5026899
:100C90001C4B91680B40816B0B439360436A9B062E
:100CA00006D50268184B91680B40C16B0B439360EB
:100CB000436A5B0612D50268144B51680B40016C05
:100CC0000B4353608023026C5B039A4206D1026897
:100CD0000F4B51680B40416C0B435360436A1B063A
:100CE00006D501680B4B4A681340826C13434B6076
:100CF0007047C046FFFFFDFFFFFFFEFFFFFFFBFF4A
:100D0000FF7FFFFFFFEFFFFFFFDFFFFFFFFFEFFFB3
:100D1000FFFF9FFFFFFFF7FFF7B51D1C041C0E1C14
:100D20000192FFF7F5FE019B071C002B39D12268C9
:100D3000D3693340B3420FD06B1CF9D0002D0FD0D4
:100D4000FFF7E6FEC01BA842F1D909E06B1C05D1F4
:100D5000D3693340B342F9D0002024E0002D1BD1E9
:100D600080212268032013688B4313602268603956
:100D700013688B43136022680B4B11680B401360A0
:100D8000012221688B6893438B60231C69331A709E
:100D900000236834237006E0FFF7BAFEC01BA842A8
:100DA000DED82268D4E7FEBDFFFEFFFF002210B5AB
:100DB00015490368041CC2668B4207D0231C01221C
:100DC0000020693368341A7020701CE01B681B0710
:100DD00004D423681B685B07F0D509E08021FA235F
:100DE00089039B00FFF798FF0028F2D003200AE058
:100DF0008021FA23201CC90300229B00FFF78CFFEF
:100E00000028F3D1DAE710BD0038014038B50028DA
:100E100001D101202FE0051C69352B78041CDBB2C1
:100E2000002B04D1021C68321370FFF783FE0223EB
:100E300001212B702268201C13688B431360FFF77D
:100E40007BFE0128E5D0636A002B02D0201CFFF74F
:100E5000F3FE2268084B5168201C0B402A21536086
:100E6000226893688B4393602268293913680B4387
:100E70001360FFF79BFF38BDFFB7FFFF10B5041CE1
:100E8000431C04D1074808492622FFF747FE201CCF
:100E90000021FFF7BDFA0F20012320408340181CDA
:100EA00010BDC046062E0008952D000870B5041C24
:100EB0000E1C21704B1C0FD00806000FFFF75EFAC6
:100EC000051C301CFFF7DAFF2B1C1033A3602835FC
:100ED00008336060E360256170BD08B5007840B2FA
:100EE000FFF7C4FA08BD000038B50023C356051C3F
:100EF0000C1C013304D1074807494522FFF70EFEB9
:100F00000020211C2856012C00D00021FFF780FA78
:100F100038BDC046012E0008952D000810B50023ED
:100F20000F4CE356013304D10E480F493522FFF729
:100F3000F5FDE36862680D481A6000F0BBF8002315
:100F4000E356013304D1074807493522FFF7E6FD90
:100F5000FE202369626880051A6000F0ABF8DEE7C6
:100F6000E4010020012E0008192E0008CDCC4C3ED3
:100F700010B5054C1422201C002101F0D7F8201CCC
:100F8000132100F086F810BDE401002008B572B608
:100F9000962000F09BF8962000F098F8F8E7000003
:100FA00010B5041C431C13D00023CB565A1C0CD084
:100FB000A34208D1201C8968FFF72AFA201C0021CF
:100FC000FFF754FA04E00C31EEE7024800F082F932
:100FD00010BDC046882E000808B5031E8B420AD0FB
:100FE0000B1C421C07D0031C4A1C04D0034800F011
:100FF00071F901235B42181C08BDC046992E0008F8
:101000000023CB565A1C05D0834201D1486802E028
:101010000C31F5E7181C704710B5041C431C07D0B1
:10102000FFF7EEFF041C431C02D1024800F052F906
:10103000201C10BDAA2E000838B50023C356041C7E
:101040000D1C013304D1064806493522FFF766FD21
:101050006368002D01D0E26800E02269136038BDAA
:10106000012E0008192E000870B50D1C041C161C5A
:10107000FFF71CFF6B1C0BD0201C311CFFF7DCFFA3
:10108000201C0121FFF730FF201C0021FFF725FF66
:1010900070BD08B50022FFF7E7FF08BD38B5041C96
:1010A00000F03AF9051C00F037F9401BA042FAD3D2
:1010B00038BD000008B5044900F07CFC00F0ACFD30
:1010C000FFF7ECFF08BDC0460024744908B5FA23B9
:1010D0009B005843FFF7E2FF08BD0000032230B534
:1010E0000C4B1C682240032A0ED080221205C0241B
:1010F0001568640514192560074C0432A242F6D124
:1011000003241A6822431A60044BC018800001604F
:1011100030BDC04600000140B000000810000008CB
:1011200008B5054B1B68002B04D1044802210F228F
:10113000FFF784F808BDC04648010020BC0100202C
:1011400008B5031C0020022B0DDD0749033B9B0063
:101150005A585850824204D01368101C5B68984754
:1011600001E00120404208BDF801002070B50C1CD0
:10117000151C022810DC0F4B1B68002B01D1FFF758
:10118000CFFF6619B44205D021780B48FFF7E2F88B
:101190000134F7E7281C0BE00338084B8000C058E7
:1011A000002803D003681B68984701E001204042F3
:1011B00070BDC04648010020BC010020F80100209D
:1011C00010B50C1C02280BDC0C4B1B68002B01D14A
:1011D000FFF7A6FF0A48FFF7A7F8207001200BE0F1
:1011E0000338084B8000C058002803D003689B6870
:1011F000984701E00120404210BDC0464801002050
:10120000BC010020F801002008B5031C0120022BBE
:101210000BDD033B054A9B009858002803D0036868
:10122000DB68984701E00120404208BDF80100203A
:1012300008B5031C0020022B0BDD033B05489B0077
:101240001858002803D003681B69984701E0012063
:10125000404208BDF801002008B5022804D88023C8
:101260009B014B60002005E000F014FD09230360A2
:101270000120404208BD704708B5FEF78DFFFFF71B
:10128000FAFFFFF74BFE08BD074A13681818EFF383
:101290000881884205D30C220120044B40421A6089
:1012A00001E01060181C7047B0000020800300208F
:1012B00038B5074C051C2368986800F0BDFD23680D
:1012C000D86800F0B9FD002D01D0FFF75FFEFEE702
:1012D000180100200FB407B5054B04AA1B6802CA09
:1012E000D868019201F000F9012000F0D9FCC04655
:1012F0001801002008B5064B1868002807D1012204
:101300001A608022034BD2051A6000F055F808BD20
:1013100034030020F802002008B5054B1B68002BA1
:1013200001D1FFF7E7FF8023DB05586A08BDC046FF
:10133000340300200221034B1B685863DA680A4318
:10134000DA607047F80200200221034B1A68D36864
:101350008B43D3607047C046F80200200322024B43
:1013600052421B681A617047F802002070B50F4C9A
:101370002368DB689B0701D5FEF7F8FF2368DA686E
:10138000520711D505220A4E52421A615D6A094A76
:101390003368EB1A934207D9FFF7B2FBFA222368AE
:1013A0009200AA189A63356070BDC0463C030020C5
:1013B00038030020E703000037B50122214B002548
:1013C000D9691143D961D96911400191019919690C
:1013D0001143196119699143196100F041F88023A3
:1013E000194CDB05236001235B42E360174B18496E
:1013F000186800F04DFA01386060201C2561A56076
:10140000656100F019F90F201249FFF767FE80228D
:10141000114B12021A60291C201C00F033F9201C09
:10142000042100F02FF923680C495A6A281C0A602D
:10143000FA218900521804219A63DA680A43DA60B3
:101440003EBDC046001002403C030020B400002016
:1014500040420F006D13000800E100E03803002057
:101460000C2370B5124D134E6A681340042B01D043
:10147000082B02D0104B336011E06C686B68A4023B
:10148000240F0234E96ADB0306D50F23194001312A
:10149000094800F0FDF900E00848444334606B68F7
:1014A000074A1B061B0FD35C3268DA40326070BDFE
:1014B00000100240B400002000127A0000093D0034
:1014C000E82E0008102370B592B009930B93A02367
:1014D0000024022601259B0305A80596069407947F
:1014E00008950A940C950D940E960F9411941093F0
:1014F000FEF7E4FFA0420BD1072301A8291C0394A7
:10150000049401930296FFF7BFF944424441E4B2C8
:10151000201C12B070BD08B5FFF7D4FF002800D121
:10152000FEE708BD38B50125184C23682B4323601E
:101530006268174B134063602268164B13402360A8
:101540002268154B134023606268144B13400F222E
:101550006360E36A9343E362226B114B134023639E
:10156000636B104AAB4363630023A360A3692B43FF
:10157000A3610D4B1A60FFF7B3FAFFF7CCFF2369A5
:101580002B4323612369AB43236138BD0010024024
:101590000CB8FF08FFFFF6FEFFFFFBFFFFFFC0FFD9
:1015A000ECFEFFFF00127A00B4000020704700003C
:1015B0001B4A10B50368904206D08024E405A0427F
:1015C00002D0184CA0420CD17024A3434C68234392
:1015D00090420FD08024E405A0420BD0114CA042D1
:1015E00008D0114CA04205D0104CA04202D0104CA3
:1015F000A04203D10F4C2340CC68234303608B6887
:10160000C3620B688362904205D0084B984202D0B7
:10161000074B984201D10B6903630123436110BD5D
:10162000002C014000040040002000400044014024
:1016300000480140FFFCFFFF38B50123002814D00B
:10164000051C39352B78041CDBB2002B04D1021C9D
:1016500038321370FFF7AAFF02232B70211D206878
:10166000FFF7A6FF01232B700023181C38BD10B50F
:1016700001248C408A40036AA3430362036A1A432D
:10168000026210BD10B5041C01220068FFF7EFFFD5
:1016900023680A4A934205D0094A934202D0094A74
:1016A000934204D180215A6C09020A435A640121F1
:1016B0002268002013680B43136010BD002C01400A
:1016C00000440140004801400022F0B585B00C689C
:1016D000231CD34000D19AE0012393402340009380
:1016E00000D192E010244D68A543022D0ED10725AC
:1016F0000F271540AD00AF40D408A4000419266A96
:10170000BE430F69AF403D1C354325620324251CB1
:101710005600B540ED4307684B682F401C40BC465F
:10172000B440271C64463C43046010244F68A74320
:10173000013F012F12D887682F40BC46CF6863460F
:10174000B7401F438760012797404368BB431F1C76
:101750004B681C40240994403C4344608B68C46837
:10176000B34025401D43C5604B68DB004DD50127C4
:10177000284C0326A56916403D43A5610F25B600F8
:10178000B540A469244B3C400394039C9408A400F6
:10179000E418A368AB43019390230025DB0598422E
:1017A00008D03D1C1D4FB84204D01D4F6D19B842E2
:1017B00000D00335B540019B1D43009BA5601E1C56
:1017C000184CDD4327684B683E43DB0301D43E1CC5
:1017D0002E4026606768009E4B683E439B0301D401
:1017E0003E1C2E406660A768009E4B683E43DB02AD
:1017F00001D43E1C2E40A660E668009B4F68334330
:10180000BF0201D4331C2B40E36001325FE705B017
:10181000F0BDC04600100240000001400004004836
:1018200000080048000401400D488546002103E0FF
:101830000C4B5B58435004310B480C4B42189A42F6
:10184000F6D30B4A02E0002313600432094B9A429C
:10185000F9D3FFF767FE00F0D7FBFEF761FCFEE768
:1018600000100020DC2F0008B00000202C01002018
:101870002C01002084030020FEE7000002B4714622
:1018800049084900095C49008E4402BC7047C046C3
:10189000002243088B4274D303098B425FD3030AAF
:1018A0008B4244D3030B8B4228D3030C8B420DD3C2
:1018B000FF22090212BA030C8B4202D31212090250
:1018C00065D0030B8B4219D300E0090AC30B8B428E
:1018D00001D3CB03C01A5241830B8B4201D38B033C
:1018E000C01A5241430B8B4201D34B03C01A5241E1
:1018F000030B8B4201D30B03C01A5241C30A8B4224
:1019000001D3CB02C01A5241830A8B4201D38B020E
:10191000C01A5241430A8B4201D34B02C01A5241B2
:10192000030A8B4201D30B02C01A5241CDD2C30924
:101930008B4201D3CB01C01A524183098B4201D3A0
:101940008B01C01A524143098B4201D34B01C01A8B
:10195000524103098B4201D30B01C01A5241C30803
:101960008B4201D3CB00C01A524183088B4201D372
:101970008B00C01A524143088B4201D34B00C01A5E
:101980005241411A00D20146524110467047FFE7CA
:1019900001B5002000F00CF802BDC0460029F7D0C8
:1019A00003B5FFF775FF0EBC4243891A1847C046BE
:1019B0007047C046F0B55F4656464D464446F0B4C3
:1019C00045024600C40F83B00F1C6D0A360EA346B5
:1019D00045D0FF2E25D080231B041D4300239A46AB
:1019E000ED007F3E01937B025B0A98467800FB0F77
:1019F000000E994640D0FF2838D0802342461B0471
:101A00001343DB00984600237F384A46019F301875
:101A10006240411C1F430F2F69D87D4EBF00F6590D
:101A2000B746002D45D108230193063B9A46DAE7D5
:101A300093465346022B2FD15B46012400251C40C0
:101A4000FF236D02DB056D0AE4071D432543281CB7
:101A500003B03CBC90469946A246AB46F0BD002D73
:101A60002CD104230193033B9A46BCE743465A42D8
:101A700053410322D31AC8E742460123002AC4D0A7
:101A8000404600F0E9F84246431F9A4076235B4205
:101A9000181A90460023B8E7032B00D1ADE0012BC4
:101AA00000D08CE05B4654461C40E4B20023002585
:101AB000C7E70C230193093B9A4694E7281C00F0E2
:101AC000CBF87626431F9D4000237642361A0193B9
:101AD0009A4688E780250024ED03FF23B1E74546B9
:101AE000CB469A46A5E7454693469A46A1E7434624
:101AF0002C041B0C9C46230C444626041C1C360C50
:101B00002F0C7443351C66467D4373437743EB18B3
:101B1000260C9E19B54203D980235B029C4667447C
:101B200024043304240C1B199D016C1EA5419B0E3B
:101B3000360C2B43BD19AD011D432B0104D50123E8
:101B400068081D400543081C031C7F33002B2CDD57
:101B5000690704D00F212940042900D00435290148
:101B600003D52C4B1D40031C8033FE2B17DD0124B5
:101B7000FF231440002564E78020C003054209D0FC
:101B80004346034206D1454605436D026D0A4C4665
:101B9000FF2356E705436D026D0AFF2351E7012439
:101BA000AD016D0ADBB214404BE77E235B421B1A8A
:101BB0001B2B07DD012400231440002541E7081CEE
:101BC0005A46C1E79E30291C8540D940681E854190
:101BD0000D436B0704D00F232B40042B00D004359A
:101BE0006B0104D5012401231440002529E70124B9
:101BF000AD016D0A1440002323E78023DB031D435E
:101C000001245B466D0223401C1C6D0AFF2318E76C
:101C1000F82E0008FFFFFFF74202510A4200C30FEF
:101C2000120E00207E2A0DDD9D2A0CDC802000048F
:101C30000143952A0ADC9620821AD1400A1C584298
:101C40004240D0187047034A9818FBE7963A9140F3
:101C50000A1CF4E7FFFFFF7F1C2101231B049842AD
:101C600001D3000C10391B0A984201D3000A08392D
:101C70001B09984201D30009043902A2105C4018E4
:101C80007047C04604030202010101010000000088
:101C900000000000014B18687047C0461801002082
:101CA000084B10B5041C002B02D0002100E000BF3F
:101CB000054B1868836A002B00D09847201CFFF75B
:101CC000F7FAC04600000000982F0008F7B58A898F
:101CD000051C0C1C13075ED44B68002B02DC0B6C3C
:101CE000002B1ADDE76A002F17D000232E682B6027
:101CF00080235B011A4001D0626D15E0281C216A27
:101D00000123B847021C431C0ED12B68002B0BD0BB
:101D10001D2B01D0162B02D12E6000205EE0402149
:101D2000A3890B43A38159E0A3895B0706D56368A8
:101D3000D21A636B002B01D0236CD21A0023281C0B
:101D4000216AE76AB847A389421C06D12A68002A9B
:101D500003D01D2A01D0162A19D1002262602269FF
:101D60002260DB0405D5431C02D12B68002B00D177
:101D70006065616B2E600029CFD0231C44339942EB
:101D800002D0281C00F0DAF90020606326E040222F
:101D90001343A38122E00F69002FBED00B680F60B0
:101DA000DB1B01930023920700D14B69A360019BC9
:101DB000002BB2DD281C216A3A1C019BA66AB047A1
:101DC000002806DC40220120A38940421343A3815E
:101DD00004E0019B3F181B1A0193E8E7FEBD0000D9
:101DE00038B50B69051C0C1C002B01D100201CE030
:101DF000002804D08369002B01D100F073F80B4B4D
:101E00009C4201D16C6808E0094B9C4201D1AC684E
:101E100003E0084B9C4200D1EC680C22A35E002B2F
:101E2000E4D0281C211CFFF751FF38BD382F0008D3
:101E3000582F0008782F000808B5011E05D1054B62
:101E40000549186800F0BEF803E0044B1868FFF776
:101E5000C7FF08BD982F0008E11D000818010020E9
:101E600008B5024900F0AEF808BDC046E11D000803
:101E7000002310B5041C03604360836081814366C6
:101E8000C281036143618361191C08225C3000F048
:101E90004DF9054B24626362044BA362044BE36279
:101EA000044B236310BDC046352800085D28000898
:101EB00095280008C128000870B568254B1E5D43B1
:101EC0000E1C291C743100F07FF9041E08D000217B
:101ED0002A1C016046600C30A060683200F026F9D0
:101EE000201C70BD836913B5002B28D18364C364A3
:101EF0000365134B134A1B6882620193984201D118
:101F000001238361041C00F01FF86060201C00F0B6
:101F10001BF8A060201C00F017F80421E0600022EC
:101F20006068FFF7A5FFA06809210122FFF7A0FF65
:101F3000E06812210222FFF79BFF0123A36113BD7A
:101F4000982F0008611E0008F8B51D4B061C1D687F
:101F5000AB69002B02D1281CFFF7C4FF4835AC68E1
:101F60006B68013B05D40C22A75E002F10D06834AB
:101F7000F7E72B68002B06D1301C0421FFF79CFFEC
:101F80002860002801D02D68E9E70C23336016E0B3
:101F90000123201C5B42E3810233A3816766276033
:101FA000A760676027616761A7615C30391C082200
:101FB00000F0BCF8201C6763A763A764E764F8BD62
:101FC000982F0008F7B5041C071C0026019148341F
:101FD000002C16D06368A5680093009B013B00931A
:101FE0000DD4AB89012B08D90E22AB5E013304D08E
:101FF000381C291C019B984706436835EDE7246887
:10200000E6E7301CFEBD00000E4B70B500251E1C1F
:102010000D4CE41AA410A54204D0AB00F358984725
:102020000135F8E700F090FD084B00251E1C084C18
:10203000E41AA410A54204D0AB00F3589847013528
:10204000F8E770BD1C0100201C0100201C010020CD
:1020500024010020F0B58B8991B09B0706D50B1C9D
:1020600047330B600B6101234B6145E00C1C0E23D1
:10207000C95E061C002904DA8023A5891D4010D101
:102080000CE001AA00F014FD0028F5DBF023029D0E
:102090001B021D40194BED186B425D418027FF006C
:1020A00001E000254027301C391C00F08DF8002885
:1020B0000CD1A3899A051FD402221343A381231CA8
:1020C0004733236023610123636115E080220C4BB9
:1020D000B362A38920601343A38120616761002D4F
:1020E0000AD00E23E15E301C00F0F4FC002803D07F
:1020F0000122A3891343A38111B0F0BD00E0FFFFCB
:10210000611E0008C9B28218904204D003788B4245
:1021100002D00130F8E700207047002310B5934249
:1021200003D0CC5CC4540133F9E710BD031C821802
:10213000934202D019700133FAE7704730B5002995
:102140003ED004390B68002B00DAC9181D4A136809
:10215000141C002B02D14B60116031E099420DD26A
:1021600008680A189A4203D11368C3180B605368B1
:102170004B60216024E08A4203D8131C5A68002A6D
:10218000F9D11D685C198C420BD10968691858187F
:102190001960904214D110685268091819605A6089
:1021A0000EE08C4202D90C23036009E008680C1889
:1021B000944203D114685268001908604A6059605B
:1021C00030BDC0467C030020032370B5CC1C9C436B
:1021D0000834051C0C2C01D20C2405E0002C03DA79
:1021E0000C2300202B6042E08C42F9D3204A136874
:1021F000101C191C002913D00A68121B0DD40B2ABD
:1022000002D90A608B181FE08B4202D15A68026023
:102210001BE04A685A600B1C17E00B1C4968E9E791
:10222000144E3368002B03D1281C00F0F1FA306003
:10223000281C211C00F0ECFA031C421CD0D0032205
:10224000C61C964386420AD11C60181C07210B301D
:102250001A1D8843821A0AD05142995007E0311A58
:10226000281C00F0D5FA431CBAD0331CECE770BD33
:102270007C03002078030020936810B5013B936035
:10228000002B05DA9469A34208DBCBB20A2B05D0F8
:102290001368581C10601970C8B201E000F016FBFA
:1022A00010BDF8B5061C0F1C141CD518AC4208D084
:1022B0002178301C3A1CFFF7DFFF0134431CF5D1B5
:1022C00000E00020F8BD0000F0B59FB0061C0F1C18
:1022D00002920593002804D08369002B01D1FFF7F7
:1022E00001FE794B9F4201D1776808E0774B9F420E
:1022F00001D1B76803E0764B9F4200D1F768BB89F4
:102300001B070AD53B69002B07D0002306AD6B6184
:1023100020336B761033AB763DE0301C391C00F077
:1023200041FB0028F1D001204042CAE0059A111D6E
:1023300012680591002A7EDB0992013423782E2B46
:1023400000D189E0217863480322FFF7DBFE0028F3
:1023500008D0604B0134C01A40238340181C2B68FE
:10236000184328602178631C5B4806220293297673
:10237000FFF7C8FE002800D191E0584B002B00D099
:1023800084E00722059B07339343083305936B6969
:10239000039A9B186B61029C2378002B04D1029B4B
:1023A000E31A049311D003E0252BF8D00134F3E7AE
:1023B000049B301C391C029AFFF773FF431C7BD02F
:1023C0006A69049B944663446B612378002B73D045
:1023D0000122002352426A6002A954325218013489
:1023E0002B60EB60AB601370AB6521783C48052235
:1023F000FFF788FE002809D0394B0134C01A0123A9
:102400008340181C2B6818432860EEE72B68DA0617
:1024100004D55322202102A8121811701A0704D5DE
:1024200053222B2102A81218117022782A2A00D1D7
:102430007CE7099B05E05242EA60022213432B60CD
:102440007BE72278303A092A04D80A214B43013429
:102450009B18F6E7099371E763782A2B09D1059B4E
:1024600002341A1D1B680592002B0DDA01235B4212
:102470000AE0002301342278303A092A04D80A21DC
:102480004B4301349B18F6E707935BE705AB0093DA
:10249000301C291C3A1C134B00E000BF07E005ABC1
:1024A0000093301C291C3A1C0E4B00F099F8039045
:1024B000039B013300D06AE7BB895B0600D532E796
:1024C0000B981FB0F0BDC046382F0008582F0008E9
:1024D000782F0008A22F0008A62F00080000000097
:1024E0009C2F0008A322000838B5051C0C1C131CE7
:1024F000034A291C1068221CFFF7E6FE38BDC046BF
:1025000018010020F7B5171C01930A698B68009029
:102510000C1C934200DA131C221C3B6043321278DD
:10252000002A01D001333B6023689B0602D53B683B
:1025300002333B60062523681D401ED0231C433315
:102540001B785A1E9341226892061CD53020E11850
:102550004031C870211C5A1C45310978A2184032FC
:102560000233D1700FE0221C012300980199193227
:10257000089EB047431C0ED00135E3683A689B1AA9
:102580009D42F0DBDAE7221C009801994332089D56
:10259000A847431C02D10120404220E006232068C6
:1025A000E1683A6803400025042B03D18D1AEB4300
:1025B000DB171D40A3682269934201DD9B1AED18C9
:1025C0000027AF420ADA221C0123009801991A322F
:1025D000089EB047431CDED00137F2E70020FEBD65
:1025E000F0B58BB006920A1C433207930590049213
:1025F0000A7E0C1C109B6E2A00D1A8E011D8632A19
:1026000022D009D8002A00D1B2E0582A00D0C2E076
:1026100045310A707C4A4FE0642A1DD0692A1BD0DC
:10262000B9E0732A00D1A7E009D86F2A29D0702A0F
:1026300000D0B0E0202209680A43226037E0752A02
:102640001FD0782A33D0A6E00E1C1A684236111D1E
:10265000196013683370A1E021681A68080606D46F
:10266000490604D5111D19600023D55E02E0111D35
:1026700019601568002D3BDA2D23049A6D42137002
:1026800036E021681A68080606D4490604D515689C
:10269000111D1960ADB202E0111D196015685A4B89
:1026A000227E03930A276F2A1DD108271BE0221CD4
:1026B000782145321170554A19680392081D226825
:1026C00018600D68100602D4500600D5ADB2D307CD
:1026D00002D520231A4322601027002D03D1202386
:1026E00022689A432260231C002243331A7002E0BE
:1026F0000A27454B03936368A360002B03DB042286
:10270000216891432160002D02D1049E002B0ED040
:10271000049E281C391CFFF741F9039B013E5B5CBA
:10272000281C3370391CFFF7B3F8051EF1D1082FB0
:1027300009D12368DB0706D563682269934202DC6E
:102740003023013E3370049B9B1B23612BE00968FF
:102750001A68080607D4490605D5111D19601368C3
:10276000A28A1A8004E0111D1960136862691A6058
:102770000023049E236116E01A68111D1960166873
:102780000021301C6268FFF7BDFC002801D0801BCF
:102790006060636803E0261C4236327001232361C7
:1027A0000023049A1370079B05980093211C069B35
:1027B00009AAFFF7A7FE431C02D10120404221E0F5
:1027C000236905980699321C079DA847431CF4D03D
:1027D00023689B0705D4099BE068984212DA181C0D
:1027E00010E00025E368099A9B1A9D42F3DA221C47
:1027F0000123059806991932079EB047431CDCD087
:102800000135EFE70BB0F0BDAD2F0008BE2F00087B
:1028100038B50023064C051C081C2360FEF734FD68
:10282000431C03D12368002B00D02B6038BDC04669
:102830008003002038B50C1C0E25495F00F070F9AC
:10284000002803DB636D1B18636503E0A289024B5C
:102850001340A38138BDC046FFEFFFFFF8B51E1C33
:102860008B89051C0C1C171CDB0505D50E23C95EC6
:102870000022022300F040F9A289054B281C1340D6
:10288000A3813A1C0E23E15E331C00F077F8F8BDFB
:10289000FFEFFFFF38B50C1C0E25495F00F02CF947
:1028A000A389421C03D1054A1340A38104E080227E
:1028B00052011343A381606538BDC046FFEFFFFF9F
:1028C00008B50E23C95E00F0E1F808BD70B5051C1F
:1028D0000E1C141C002804D08369002B01D1FFF7C3
:1028E00001FB234B9C4201D16C6808E0214B9C42C8
:1028F00001D1AC6803E0204B9C4200D1EC68A36995
:10290000A360A3891B070AD52369002B07D023687E
:102910002269F6B2981A636998420FDB08E0281C16
:10292000211C00F03FF80028F1D0012040421DE0BA
:10293000281C211CFFF754FA0028F6D1A3680130A7
:10294000013BA36023685A1C22601E706369984291
:1029500005D0A389301CDB0708D50A2E06D1281C18
:10296000211CFFF73DFA0028DFD1301C70BDC046A6
:10297000382F0008582F0008782F000838B5051C9C
:102980000020074C2060081C111C1A1CFEF7EEFBEF
:10299000431C03D12368002B00D02B6038BDC046F8
:1029A00080030020354B70B51D68061C0C1C002DE3
:1029B00005D0AB69002B02D1281CFFF793FA304BEE
:1029C0009C4201D16C6808E02E4B9C4201D1AC685E
:1029D00003E02D4B9C4200D1EC68A3899AB2110709
:1029E00023D4D10607D409220120326037321343A1
:1029F000A381404240E0530713D5616B002908D002
:102A0000231C4433994202D0301CFFF797FB00236C
:102A100063632422A3899343A38100236360236912
:102A200023600822A3891343A3812369002B0BD1C0
:102A3000A023A2899B00134080229200934203D0DE
:102A4000301C211CFFF706FB0123A289134005D08F
:102A50000023A36063695B42A36103E0910700D494
:102A60006369A36000202369834205D1130603D55F
:102A700040231A43A281013870BDC04618010020CE
:102A8000382F0008582F0008782F000838B5002389
:102A9000064C051C081C2360FEF752FB431C03D1A7
:102AA0002368002B00D02B6038BDC0468003002077
:102AB00038B50023064C051C081C111C2360FEF7CA
:102AC000CBFB431C03D12368002B00D02B6038BD07
:102AD0008003002038B50023064C051C081C236029
:102AE000FEF792FB431C03D12368002B00D02B6020
:102AF00038BDC0468003002038B5051C0020074CB7
:102B00002060081C111C1A1CFEF792FB431C03D109
:102B10002368002B00D02B6038BDC0468003002006
:102B200038B5051C0020074C2060081C111C1A1C1D
:102B3000FEF746FB431C03D12368002B00D02B601B
:102B400038BDC04680030020F8B5C046F8BC08BCBC
:102B50009E467047F8B5C046F8BC08BC9E46704714
:102B60000A00000000380140930000000F00000040
:102B700000380140930000001700000000380140B9
:102B800013000000FF000000FFFFFFFF0000000037
:102B90000100000000380140930000000200000026
:102BA0000038014093000000090000000038014097
:102BB00093000000160000000038014013000000E0
:102BC000FF000000FFFFFFFF000000006F626A2DA2
:102BD0003E7561727420213D2028554152544E614A
:102BE0006D65294E4300453A5C776F726B73706177
:102BF00063655C6D6265644C6962496E41746F6CBB
:102C00006C69635C4E75636C656F5F626C696E6B5B
:102C10005F6C65645F636F6F636F785C6D62656442
:102C20005C746172676574735C68616C5C5441527A
:102C30004745545F53544D5C5441524745545F538C
:102C4000544D333246305C73657269616C5F6170FC
:102C5000692E6300F51200081913000849130008D3
:102C60005D13000835130008542C0008D80100201B
:102C700050696E6D6170206572726F723A20777262
:102C80006F6E6720706F7274206E756D6265722E44
:102C900000453A5C776F726B73706163655C6D625F
:102CA00065644C6962496E41746F6C6C69635C4E1B
:102CB00075636C656F5F626C696E6B5F6C65645F9A
:102CC000636F6F636F785C6D6265645C746172677B
:102CD0006574735C68616C5C5441524745545F5342
:102CE000544D5C5441524745545F53544D33324622
:102CF000305C70696E6D61702E6300000000000032
:102D0000010000001100000002000000120000009D
:102D1000030000000000111000002110000031101D
:102D200000001210000022100000321000000010FD
:102D300002030405060708090A0B0C0D0E0F1010FC
:102D40000102030405060708090A0B0C0D0E0F10FB
:102D50000000000001020304010203040607080941
:102D60006D626564206173736572746174696F6EFE
:102D7000206661696C65643A2025732C2066696C55
:102D8000653A2025732C206C696E65202564200A25
:102D90000000040802453A5C776F726B73706163E0
:102DA000655C6D6265644C6962496E41746F6C6C00
:102DB00069635C4E75636C656F5F626C696E6B5FB7
:102DC0006C65645F636F6F636F785C6D6265645C94
:102DD000746172676574735C68616C5C54415247DE
:102DE00045545F53544D5C5441524745545F5354CE
:102DF0004D333246305C6770696F5F6170692E6376
:102E0000006F626A2D3E70696E20213D2028506956
:102E10006E4E616D65294E4300453A5C776F726B6B
:102E200073706163655C6D6265644C6962496E4193
:102E3000746F6C6C69635C4E75636C656F5F626C1C
:102E4000696E6B5F6C65645F636F6F636F785C6DF9
:102E50006265645C746172676574735C68616C5C04
:102E60005441524745545F53544D5C544152474579
:102E7000545F53544D333246302F6770696F5F6F24
:102E8000626A6563742E6800636F756C64206E6F90
:102E9000742070696E6F75740070696E6D6170205A
:102EA0006D69732D6D617463680070696E6D61701A
:102EB000206E6F7420666F756E6420666F7220706E
:102EC00065726970686572616C0070696E6D6170C1
:102ED000206E6F7420666F756E6420666F72206658
:102EE000756E6374696F6E000000000000000000E2
:102EF0000102030406070809EE1A0008E61A000892
:102F0000E61A0008DE1A0008301A0008301A000815
:102F1000D41A0008DE1A0008301A0008D41A000873
:102F2000301A0008DE1A0008321A0008321A0008A7
:102F3000321A0008781B00080000000000000000A2
:102F40000000000000000000000000000000000081
:102F50000000000000000000000000000000000071
:102F60000000000000000000000000000000000061
:102F70000000000000000000000000000000000051
:102F80000000000000000000000000000000000041
:102F90000000000000000000B8000020232D302BAE
:102FA0002000686C4C00656667454647003031324A
:102FB00033343536373839414243444546003031A1
:102FC0003233343536373839616263646566000000
:042FD00000000000FD
:082FD4004CD1FF7F0100000059
:102FDC0084030020006CDC0200000000382F000885
:102FEC00582F0008782F0008000000000000000097
:102FFC000000000000000000E42B000800000000AE
:10300C0000000000000000000000000000000000B4
:10301C0000000000000000000000000000000000A4
:10302C000000000000000000000000000000000094
:10303C000000000000000000B8000020E9000008BB
:0C304C00710F0008C10000080000000027
:0400000508001829AE
:00000001FF
